:100000000C942A000C944C000C944C000C944C0062
:100010000C944C000C944C000C944C000C944C0030
:100020000C944C000C944C000C944C000C944C0020
:100030000C944C000C944C000C944C000C944C0010
:100040000C944C000C944C000C944C000C944C0000
:100050000C944C0011241FBECFE5D8E0DEBFCDBF0D
:0C0060000E9436000C943400F894FFCF8E
:10006C0088EF81BB8FEF87BB12BA95E793BF19BEA0
:10007C008CBF809B02C082EB8CBF819B02C086E64A
:0C008C008CBF829BF6CF89E18CBFF3CFC4
:040098000C940000C4
:00000001FF
